:100000000C942A000C9447000C9447000C94470071
:100010000C9447000C9447000C9447000C94470044
:100020000C9447000C9447000C940C020C9447006D
:100030000C9447000C9447000C9447000C94470024
:100040000C9447000C9447000C9447000C94470014
:100050000C94470011241FBECFE5D8E0DEBFCDBF12
:1000600010E0A0E6B0E0ECEEF7E102C005900D92E2
:10007000AC39B107D9F710E0ACE9B0E001C01D928E
:10008000A43BB107E1F70E94CB0B0C94F40B0C944A
:100090000000DF93CF9300D0CDB7DEB780919C00F6
:1000A0008823F1F481E080939C0087E690E09A83B6
:1000B0008983EBE2F0E01082EAE2F0E088E18083FD
:1000C000E0E4F0E086E88083E9E2F0E08981808383
:1000D000E0E4F0E089819A81892F99278F708083ED
:1000E0000F900F90CF91DF910895DF93CF930F92F0
:1000F000CDB7DEB78983EBE2F0E08081882F90E016
:10010000807290700097B9F3ECE2F0E0898180830F
:100110000F90CF91DF910895DF93CF93CDB7DEB7E6
:10012000EBE2F0E080818823DCF7ECE2F0E0808114
:10013000CF91DF910895DF93CF93CDB7DEB7EBE298
:10014000F0E080818078CF91DF910895DF93CF93A5
:10015000CDB7DEB7ECE2F0E08081CF91DF9108957A
:10016000DF93CF9300D000D0CDB7DEB79B838A83D7
:100170006C8319820EC08981282F30E08A819B818F
:10018000FC01E20FF31F80810E94750089818F5F5F
:10019000898399818C81981770F30F900F900F903D
:1001A0000F90CF91DF910895DF93CF9300D00F92FE
:1001B000CDB7DEB79B838A83198280919C00882308
:1001C00011F40E9449008981282F30E08A819B81A7
:1001D000FC01E20FF31F80810E94750089818F5F0F
:1001E00089838981282F30E08A819B81FC01E20F7D
:1001F000F31F8081882339F78DE00E9475000F90EE
:100200000F900F90CF91DF9108950F931F93DF937D
:10021000CF9300D000D0CDB7DEB79A8389837C839B
:100220006B83EB81FC811082EB81FC818081282F24
:1002300030E089819A818C01020F131F0E948C008B
:10024000F8018083EB81FC8180818F5FEB81FC81F1
:100250008083EB81FC818081882F90E09C0121507C
:10026000304089819A81FC01E20FF31F808188234D
:10027000D9F60F900F900F900F90CF91DF911F91B3
:100280000F910895DF93CF93CDB7DEB780919D0096
:1002900090919E00A0919F00B091A0000196A11D99
:1002A000B11D80939D0090939E00A0939F00B093FA
:1002B000A000CF91DF910895DF93CF93CDB7DEB744
:1002C00080919D0090919E00A0919F00B091A00010
:1002D0002AE030E040E050E0BC01CD010E94D20BAA
:1002E000DA01C901BC01CD01CF91DF910895DF93FF
:1002F000CF93CDB7DEB7E3E5F0E08AE08083E9E5B0
:10030000F0E082E08083ECE5F0E087EC8083CF9141
:10031000DF910895DF93CF93CDB7DEB728970FB65F
:10032000F894DEBF0FBECDBF98878F83EFE5F0E076
:1003300080818983AFE5B0E0EFE5F0E080818F77E1
:100340008C93E3E5F0E080818C83ECE5F0E0808144
:100350008B83E2E5F0E080818A83E3E5F0E08CE0E6
:100360008083ECE5F0E088EC80831E821D8216C05D
:10037000E8E5F0E080818695882F90E081709070AC
:100380000097B1F3A8E5B0E0E8E5F0E08081826095
:100390008C938D819E8101969E838D832D813E81DC
:1003A0008F8198852817390718F3E2E5F0E08A81F4
:1003B0008083E3E5F0E08C818083ECE5F0E08B81E5
:1003C0008083EFE5F0E08981808328960FB6F8946A
:1003D000DEBF0FBECDBFCF91DF910895DF93CF93E6
:1003E000CDB7DEB70E9426080E947701AFE5B0E0E6
:1003F000EFE5F0E0808180688C930E94BF070E9447
:10040000380280E690E00E94D40089E690E00E94E5
:10041000D400CF91DF9108951F920F920FB60F92E3
:1004200011242F933F934F935F936F937F938F93F9
:100430009F93AF93BF93EF93FF93DF93CF93CDB78A
:10044000DEB70E94DA060E948802CF91DF91FF9109
:10045000EF91BF91AF919F918F917F916F915F913C
:100460004F913F912F910F900FBE0F901F901895B5
:10047000DF93CF93CDB7DEB7CF91DF910895DF93B0
:10048000CF9300D000D0CDB7DEB78B831A8219820C
:100490008091A400833090F081E089830FC08A812D
:1004A000882F90E0FC01EF55FF4F90818B819817CA
:1004B00011F481E089838A818F5F8A839091A400FF
:1004C0008A81891718F48981882349F389818823CF
:1004D00089F42091A400822F90E0FC01EF55FF4F9A
:1004E0008B818083822F8F5F8093A4008B8162E059
:1004F0000E942D081C828981882311F481E08C835D
:100500008C810F900F900F900F90CF91DF910895F5
:10051000DF93CF9300D0CDB7DEB79091A500809147
:10052000A400981708F0CEC08091A500882F90E015
:10053000FC01E958FF4F8081282F30E03A8329835E
:1005400089819A818130910509F463C029813A81BA
:10055000223031052CF489819A81009769F0A4C07A
:1005600029813A812230310509F46AC089819A8152
:1005700083309105C1F098C08091A500882F90E04C
:10058000FC01EF55FF4F80810E94B90A882309F0D2
:1005900093C08091A500882F90E0FC01E958FF4F9F
:1005A00083E0808389C08091A500882F90E0FC01C2
:1005B000EF55FF4F80810E94B90A882369F480912A
:1005C000A500282F30E0F901EA55FF4F80818F5FA9
:1005D000F901EA55FF4F80838091A500882F90E0B4
:1005E000FC01EA55FF4F8081833008F465C080919B
:1005F000A500882F90E0FC01EA55FF4F1082809102
:10060000A500882F90E0FC01E958FF4F81E080832E
:1006100053C08091A500882F90E0FC01EF55FF4F5B
:1006200080810E94B90A813009F046C08091A500FE
:10063000882F90E0FC01E958FF4F82E080833CC0A6
:100640008091A500882F90E0FC01EF55FF4F80813D
:100650000E94B90A813069F48091A500282F30E00A
:10066000F901EA55FF4F80818F5FF901EA55FF4F8D
:1006700080838091A500882F90E0FC01EA55FF4F10
:1006800080818330C8F08091A500882F90E0FC0124
:10069000EA55FF4F10828091A500882F90E0FC0161
:1006A000E958FF4F108208C08091A500882F90E084
:1006B000FC01E958FF4F10828091A5008F5F809365
:1006C000A50002C01092A5000F900F90CF91DF916E
:1006D0000895DF93CF9300D00F92CDB7DEB78B8311
:1006E0001A8284E0898315C08A81882F90E0FC01FA
:1006F000EF55FF4F90818B81981741F48A81882FA5
:1007000090E0FC01E958FF4F808189838A818F5FE7
:100710008A839091A4008A81891718F48981843092
:1007200019F389810F900F900F90CF91DF91089569
:10073000DF93CF9300D000D0CDB7DEB7898380910F
:10074000AC00282F30E03C832B838B819C8184304C
:10075000910509F4A4C02B813C8125303105ECF4CE
:100760008B819C818130910509F46BC02B813C8188
:10077000223031052CF48B819C81009739F1F4C033
:100780002B813C812230310509F46DC08B819C8125
:100790008330910509F471C0E7C02B813C8126307C
:1007A000310509F4B5C08B819C81863091050CF42C
:1007B00083C02B813C812730310509F4BAC08B817D
:1007C0009C818830910509F4BEC0CEC089E060E00C
:1007D0000E94C9098AE060E00E94C9098981982FB6
:1007E000991F9927991F87E0692F0E94C90989815C
:1007F0008295869586958370982F917086E0692FF3
:100800000E94C9098981829586958770982F917079
:1008100085E0692F0E94C909898182958F70982F80
:10082000917084E0692F0E94C9098BE061E00E9409
:10083000C9098091AC008F5F8093AC001092AD002D
:1008400095C08091AD008F5F8093AD008091AD0029
:10085000863008F48BC01092AD008091AC008F5FA1
:100860008093AC0083C08BE060E00E94C909809156
:10087000AC008F5F8093AC0079C08091AD008F5F3A
:100880008093AD008091AD00863008F46FC0109267
:10089000AD008091AC008F5F8093AC0067C0898110
:1008A000803231F08091AC008F5F8093AC005EC0ED
:1008B00089E08093AC005AC089818695869586959B
:1008C000982F917087E0692F0E94C90989818695C8
:1008D0008695982F917086E0692F0E94C9098981B9
:1008E0008695982F917085E0692F0E94C9098981AA
:1008F000982F917084E0692F0E94C9098BE061E014
:100900000E94C9098091AC008F5F8093AC002EC01B
:100910008091AD008F5F8093AD008091AD008630F7
:1009200028F11092AD008091AC008F5F8093AC00F5
:100930001DC08BE060E00E94C9098091AC008F5F10
:100940008093AC0013C08091AD008F5F8093AD00A9
:100950008091AD00863050F01092AD008091AC00D7
:100960008F5F8093AC0002C01092AC008091AC000D
:100970001A82882311F491E09A838A810F900F9054
:100980000F900F90CF91DF910895DF93CF9300D018
:100990000F92CDB7DEB78091AF00282F30E03B83B8
:1009A0002A838A819B818430910509F499C02A8128
:1009B0003B8125303105ECF48A819B8181309105A2
:1009C00009F45EC02A813B81223031052CF48A81F2
:1009D0009B81009799F1DAC02A813B812230310551
:1009E00009F460C08A819B818330910509F466C057
:1009F000CDC02A813B812730310509F49AC08A8114
:100A00009B81883091056CF42A813B81253031052A
:100A100009F472C08A819B818630910509F47EC0F9
:100A2000B5C02A813B812830310509F493C08A8101
:100A30009B818930910509F498C0A8C08BE061E0E2
:100A40000E942D088AE061E00E942D0889E061E0A3
:100A50000E942D0887E061E00E942D0886E061E099
:100A60000E942D0885E061E00E942D0884E061E08D
:100A70000E942D088091AF008F5F8093AF0088C0E7
:100A80008091AE008F5F8093AE008091AE0089327E
:100A900008F47EC01092AE008091AF008F5F80930B
:100AA000AF0076C080E20E949803882309F470C0EA
:100AB0008091AF008F5F8093AF006AC08091AE00DD
:100AC0008F5F8093AE008091AE00863008F460C0E6
:100AD0001092AE008091AF008F5F8093AF0058C03E
:100AE0008CE20E949803882309F452C08091AF00E1
:100AF0008F5F8093AF004CC08091AE008F5F80937A
:100B0000AE008091AE00843008F442C01092AE0076
:100B10008091AF008F5F8093AF003AC08CE00E945D
:100B200098038823A9F18091AF008F5F8093AF0075
:100B30002FC08091AE008F5F8093AE008091AE0099
:100B4000843030F11092AE008091AF008F5F8093BF
:100B5000AF001EC081E00E9498038823C9F08091F5
:100B6000AF008F5F8093AF0013C08091AE008F5FA6
:100B70008093AE008091AE008B3050F01092AE00AA
:100B80008091AF008F5F8093AF0002C01092AF00E2
:100B90008091AF001982882311F491E099838981B3
:100BA0000F900F900F90CF91DF910895DF93CF9327
:100BB00000D000D0CDB7DEB789838091B000282F58
:100BC00030E03C832B838B819C818230910509F43A
:100BD00068C02B813C81233031055CF48B819C8182
:100BE0000097A1F02B813C812130310509F449C0E7
:100BF000A9C08B819C818330910509F484C02B812D
:100C00003C812430310509F491C09CC089E061E049
:100C10000E94C9098AE060E00E94C9098981982F71
:100C2000991F9927991F87E0692F0E94C909898117
:100C30008295869586958370982F917086E0692FAE
:100C40000E94C9098981829586958770982F917035
:100C500085E0692F0E94C909898182958F70982F3C
:100C6000917084E0692F0E94C9098BE061E00E94C5
:100C7000C9098091B0008F5F8093B0001092B100DD
:100C800066C08091B1008F5F8093B1008091B10008
:100C9000863008F45CC08091B0008F5F8093B00014
:100CA00056C01092B1008BE060E00E94C9098981B2
:100CB000869586958695982F917087E0692F0E947A
:100CC000C909898186958695982F917086E0692F4C
:100CD0000E94C90989818695982F917085E0692FB6
:100CE0000E94C9098981982F917084E0692F0E9420
:100CF000C9098BE061E00E94C9098091B0008F5F53
:100D00008093B00024C080E060E00E94C909809117
:100D1000B1008F5F8093B1008091B1008630B8F050
:100D20008091B0008F5F8093B00011C01092B1002D
:100D30008BE060E00E94C9098091B0008F5F8093D2
:100D4000B00005C01092B00031E03A8301C01A82B1
:100D50008A810F900F900F900F90CF91DF9108959F
:100D6000DF93CF9300D00F92CDB7DEB789836A832C
:100D70008A81882F90E081709070002496958795E5
:100D80000794969587950794982F802D982F9068B3
:100D900089818F73892B0E949803882319F081E041
:100DA0008B8301C01B828B810F900F900F90CF918E
:100DB000DF910895DF93CF9300D0CDB7DEB7809158
:100DC000AB00282F30E03A83298389819A818230D1
:100DD000910539F129813A81233031055CF489810B
:100DE0009A81009709F46CC029813A81213031053C
:100DF00069F066C089819A8183309105F1F029817B
:100E00003A812430310509F44FC05AC00E94C5040C
:100E1000882309F455C08091AB008F5F8093AB00AD
:100E20004FC081E00E949803882309F449C0809153
:100E3000AB008F5F8093AB0043C08091B200282F3E
:100E400030E08091B300482F50E0C901829592951F
:100E5000907F9827807F9827820F931F840F951F7C
:100E6000FC01E658FF4F80810E94D605882341F19E
:100E70008091B3008F5F8093B3008091B300803185
:100E8000F8F01092B3008091B2008F5F8093B200AF
:100E90008091B200823010F01092B2008091AB00CD
:100EA0008F5F8093AB000CC08091B3009091B20033
:100EB000692F0E94B006882319F083E08093AB006D
:100EC0000F900F90CF91DF910895DF93CF9300D0D3
:100ED000CDB7DEB789836A8389818093A9008A812F
:100EE0008093AA000F900F90CF91DF910895DF9328
:100EF000CF930F92CDB7DEB7898389818A3071F1A4
:100F00008091AA00282F30E06091A900462F50E080
:100F1000C90182959295907F9827807F9827820FAC
:100F2000931F840F951FFC01E658FF4F8981808332
:100F3000862F8F5F8093A9008091A9008031D8F01F
:100F40001092A9008091AA008F5F8093AA008091DF
:100F5000AA00823080F01092AA000DC01092A90061
:100F60008091AA008F5F8093AA008091AA008230AE
:100F700010F01092AA000F90CF91DF910895DF93A7
:100F8000CF93CDB7DEB781E08093AB00CF91DF91F7
:100F90000895DF93CF9300D00F92CDB7DEB79B8338
:100FA0008A8319820EC08981282F30E08A819B8133
:100FB000FC01E20FF31F80810E94770789818F5F18
:100FC00089838981282F30E08A819B81FC01E20F8F
:100FD000F31F8081882339F70F900F900F90CF91E6
:100FE000DF910895DF93CF9300D0CDB7DEB71A829B
:100FF00021C0198219C08A81282F30E08981482FA9
:1010000050E0C90182959295907F9827807F98271C
:10101000820F931F840F951FFC01E658FF4F80E25B
:10102000808389818F5F89838981803120F38A81E0
:101030008F5F8A838A818230E0F21092A900109239
:10104000AA000F900F90CF91DF910895DF93CF9377
:10105000CDB7DEB7CF91DF910895DF93CF9300D066
:1010600000D00F92CDB7DEB78A836B8319828A8155
:10107000803208F085C18B81833008F081C181E026
:1010800089838A81869586958695282F30E03D83D1
:101090002C836C817D816130710509F46EC08C8177
:1010A0009D818230910534F42C813D8121153105DB
:1010B00071F065C16C817D816230710509F4B3C046
:1010C0008C819D818330910509F403C158C1AAE345
:1010D000B0E08A81882F90E09C012770307081E019
:1010E00090E002C0880F991F2A95E2F7982F9095FB
:1010F000EAE3F0E08081492F48238B81882F90E03C
:101100009C01217030708A81882F90E087709070E8
:10111000B90102C0660F771F8A95E2F7CB01842BD5
:101120008C93ABE3B0E08A81882F90E09C0127701C
:10113000307081E090E002C0880F991F2A95E2F795
:10114000982F9095EBE3F0E08081492F48238B8125
:101150008695882F90E09C01217030708A81882FBD
:1011600090E087709070B90102C0660F771F8A9572
:10117000E2F7CB01842B8C9303C1A7E3B0E08A8113
:10118000882F90E09C012770307081E090E002C0D1
:10119000880F991F2A95E2F7982F9095E7E3F0E0E2
:1011A0008081492F48238B81882F90E09C012170FA
:1011B00030708A81882F90E087709070B90102C0EA
:1011C000660F771F8A95E2F7CB01842B8C93A8E3F7
:1011D000B0E08A81882F90E09C012770307081E018
:1011E00090E002C0880F991F2A95E2F7982F9095FA
:1011F000E8E3F0E08081492F48238B818695882F92
:1012000090E09C01217030708A81882F90E0877077
:101210009070B90102C0660F771F8A95E2F7CB0183
:10122000842B8C93ADC0A4E3B0E08A81882F90E03A
:101230009C012770307081E090E002C0880F991FF8
:101240002A95E2F7982F9095E4E3F0E08081492F0A
:1012500048238B81882F90E09C01217030708A8117
:10126000882F90E087709070B90102C0660F771FD9
:101270008A95E2F7CB01842B8C93A5E3B0E08A81B9
:10128000882F90E09C012770307081E090E002C0D0
:10129000880F991F2A95E2F7982F9095E5E3F0E0E3
:1012A0008081492F48238B818695882F90E09C016F
:1012B000217030708A81882F90E087709070B9011A
:1012C00002C0660F771F8A95E2F7CB01842B8C93BF
:1012D00057C0A1E3B0E08A81882F90E09C0127707D
:1012E000307081E090E002C0880F991F2A95E2F7E4
:1012F000982F9095E1E3F0E08081492F48238B817E
:10130000882F90E09C01217030708A81882F90E0B6
:1013100087709070B90102C0660F771F8A95E2F757
:10132000CB01842B8C93A2E3B0E08A81882F90E0DC
:101330009C012770307081E090E002C0880F991FF7
:101340002A95E2F7982F9095E2E3F0E08081492F0B
:1013500048238B818695882F90E09C012170307006
:101360008A81882F90E087709070B90102C0660F63
:10137000771F8A95E2F7CB01842B8C9301C01982E9
:1013800089810F900F900F900F900F90CF91DF9168
:101390000895DF93CF9300D000D00F92CDB7DEB782
:1013A0008A836B8319828A81803208F0D9C08B814D
:1013B000823008F0D5C081E089838A818695869540
:1013C0008695282F30E03D832C836C817D816130B0
:1013D000710509F443C08C819D818230910534F4FC
:1013E0002C813D812115310571F0B9C06C817D8161
:1013F0006230710509F45DC08C819D818330910557
:1014000009F482C0ACC0ABE3B0E08A81882F90E0E1
:101410009C012770307081E090E002C0880F991F16
:101420002A95E2F7982F9095EBE3F0E08081492F21
:1014300048238B81882F90E09C01217030708A8135
:10144000882F90E087709070B90102C0660F771FF7
:101450008A95E2F7CB01842B8C9382C0A8E3B0E09D
:101460008A81882F90E09C012770307081E090E0A5
:1014700002C0880F991F2A95E2F7982F9095E8E30C
:10148000F0E08081492F48238B81882F90E09C01D8
:10149000217030708A81882F90E087709070B90138
:1014A00002C0660F771F8A95E2F7CB01842B8C93DD
:1014B00057C0A5E3B0E08A81882F90E09C01277097
:1014C000307081E090E002C0880F991F2A95E2F702
:1014D000982F9095E5E3F0E08081492F48238B8198
:1014E000882F90E09C01217030708A81882F90E0D5
:1014F00087709070B90102C0660F771F8A95E2F776
:10150000CB01842B8C932CC0A2E3B0E08A81882F7E
:1015100090E09C012770307081E090E002C0880F5D
:10152000991F2A95E2F7982F9095E2E3F0E08081E9
:10153000492F48238B81882F90E09C0121703070C7
:101540008A81882F90E087709070B90102C0660F81
:10155000771F8A95E2F7CB01842B8C9301C0198207
:1015600089810F900F900F900F900F90CF91DF9186
:101570000895DF93CF9300D000D0CDB7DEB78A8334
:1015800082E089838A81803208F076C08A818695DC
:1015900086958695282F30E03C832B834B815C8198
:1015A0004130510559F18B819C818230910534F491
:1015B0002B813C812115310569F05CC04B815C8138
:1015C0004230510579F18B819C818330910509F47A
:1015D0003DC050C0E9E3F0E08081282F30E08A81EF
:1015E000882F90E087709070A90102C055954795AB
:1015F0008A95E2F7CA01817089833EC0E6E3F0E094
:101600008081282F30E08A81882F90E08770907049
:10161000A90102C0559547958A95E2F7CA018170E4
:1016200089832AC0E3E3F0E08081282F30E08A81BB
:10163000882F90E087709070A90102C0559547955A
:101640008A95E2F7CA018170898316C0E0E3F0E071
:101650008081282F30E08A81882F90E087709070F9
:10166000A90102C0559547958A95E2F7CA01817094
:10167000898302C082E0898389810F900F900F9047
:101680000F90CF91DF910895DF93CF93CDB7DEB761
:10169000E7E2F0E080E68083E6E2F0E087E880833E
:1016A000A0E5B0E0E0E5F0E080818C93CF91DF91A0
:1016B0000895DF93CF930F92CDB7DEB78983A7E26A
:1016C000B0E0E7E2F0E08081982F89818F71892B6B
:1016D0008C930F90CF91DF910895DF93CF93CDB787
:1016E000DEB7A6E2B0E0E6E2F0E0808180648C93B1
:1016F000CF91DF910895DF93CF93CDB7DEB7E6E2C8
:10170000F0E0808182958F708170CF91DF91089594
:10171000DF93CF9300D0CDB7DEB7E4E2F0E0808175
:101720008295869586958370882F90E09A83898329
:10173000E5E2F0E08081882F90E0880F991F880F04
:10174000991F9C0189819A81822B932B9A8389838B
:10175000A6E2B0E0E6E2F0E0808180618C938981CE
:101760009A810F900F90CF91DF910895DF93CF93DF
:101770000F92CDB7DEB7898389810E94590B0E94F1
:101780006D0B0E947B0B8823E1F30E94880B0F9066
:10179000CF91DF910895DF93CF93CDB7DEB70E944D
:1017A000EE01FFCFA1E21A2EAA1BBB1BFD010DC04B
:1017B000AA1FBB1FEE1FFF1FA217B307E407F50701
:1017C00020F0A21BB30BE40BF50B661F771F881FDD
:1017D000991F1A9469F760957095809590959B0173
:0C17E000AC01BD01CF010895F894FFCFCB
:1017EC00616E612068656E6100616E612068656E76
:1017FC00612074616E7900040000202020202020DC
:10180C0020202020202020202020002020202020EC
:0C181C0020202020202020202020200060
:00000001FF
