:100000000C942A000C9434000C9434000C943400AA
:100010000C9434000C9434000C9434000C94340090
:100020000C9434000C9434000C9434000C94340080
:100030000C9434000C9434000C9434000C94340070
:100040000C9434000C9434000C9434000C94340060
:100050000C94340011241FBECFE5D4E0DEBFCDBF29
:100060000E9479030C9480030C940000DF93CF93DB
:10007000CDB7DEB70E945A008823C9F080E061E066
:100080000E94620080E061E00E94FE0181E062E087
:100090000E94620082E061E00E94620081E00E94B2
:1000A000EE02982F82E0692F0E94FE01F7CFCF91D8
:1000B000DF910895DF93CF93CDB7DEB781E0CF9185
:1000C000DF910895DF93CF9300D000D00F92CDB78A
:1000D000DEB78A836B8319828A81803208F085C1FA
:1000E0008B81833008F081C181E089838A81869584
:1000F00086958695282F30E03D832C836C817D8109
:100100006130710509F46EC08C819D81823091054A
:1001100034F42C813D812115310571F065C16C816C
:100120007D816230710509F4B3C08C819D8183307B
:10013000910509F403C158C1AAE3B0E08A81882F70
:1001400090E09C012770307081E090E002C0880F41
:10015000991F2A95E2F7982F9095EAE3F0E08081C5
:10016000492F48238B81882F90E09C0121703070AB
:100170008A81882F90E087709070B90102C0660F65
:10018000771F8A95E2F7CB01842B8C93ABE3B0E029
:100190008A81882F90E09C012770307081E090E088
:1001A00002C0880F991F2A95E2F7982F9095EBE3EC
:1001B000F0E08081492F48238B818695882F90E03D
:1001C0009C01217030708A81882F90E08770907038
:1001D000B90102C0660F771F8A95E2F7CB01842B25
:1001E0008C9303C1A7E3B0E08A81882F90E09C0143
:1001F0002770307081E090E002C0880F991F2A9527
:10020000E2F7982F9095E7E3F0E08081492F4823AB
:100210008B81882F90E09C01217030708A81882F1B
:1002200090E087709070B90102C0660F771F8A95C1
:10023000E2F7CB01842B8C93A8E3B0E08A81882F6E
:1002400090E09C012770307081E090E002C0880F40
:10025000991F2A95E2F7982F9095E8E3F0E08081C6
:10026000492F48238B818695882F90E09C0121702F
:1002700030708A81882F90E087709070B90102C039
:10028000660F771F8A95E2F7CB01842B8C93ADC064
:10029000A4E3B0E08A81882F90E09C012770307041
:1002A00081E090E002C0880F991F2A95E2F7982F0D
:1002B0009095E4E3F0E08081492F48238B81882FDB
:1002C00090E09C01217030708A81882F90E08770C7
:1002D0009070B90102C0660F771F8A95E2F7CB01D3
:1002E000842B8C93A5E3B0E08A81882F90E09C0159
:1002F0002770307081E090E002C0880F991F2A9526
:10030000E2F7982F9095E5E3F0E08081492F4823AC
:100310008B818695882F90E09C01217030708A81B6
:10032000882F90E087709070B90102C0660F771F28
:100330008A95E2F7CB01842B8C9357C0A1E3B0E000
:100340008A81882F90E09C012770307081E090E0D6
:1003500002C0880F991F2A95E2F7982F9095E1E344
:10036000F0E08081492F48238B81882F90E09C0109
:10037000217030708A81882F90E087709070B90169
:1003800002C0660F771F8A95E2F7CB01842B8C930E
:10039000A2E3B0E08A81882F90E09C012770307042
:1003A00081E090E002C0880F991F2A95E2F7982F0C
:1003B0009095E2E3F0E08081492F48238B81869578
:1003C000882F90E09C01217030708A81882F90E006
:1003D00087709070B90102C0660F771F8A95E2F7A7
:1003E000CB01842B8C9301C0198289810F900F90CF
:1003F0000F900F900F90CF91DF910895DF93CF93DF
:1004000000D000D00F92CDB7DEB78A836B831982FC
:100410008A81803208F0D9C08B81823008F0D5C043
:1004200081E089838A81869586958695282F30E09C
:100430003D832C836C817D816130710509F443C05B
:100440008C819D818230910534F42C813D81211570
:10045000310571F0B9C06C817D816230710509F49C
:100460005DC08C819D818330910509F482C0ACC050
:10047000ABE3B0E08A81882F90E09C012770307058
:1004800081E090E002C0880F991F2A95E2F7982F2B
:100490009095EBE3F0E08081492F48238B81882FF2
:1004A00090E09C01217030708A81882F90E08770E5
:1004B0009070B90102C0660F771F8A95E2F7CB01F1
:1004C000842B8C9382C0A8E3B0E08A81882F90E0CF
:1004D0009C012770307081E090E002C0880F991F66
:1004E0002A95E2F7982F9095E8E3F0E08081492F74
:1004F00048238B81882F90E09C01217030708A8185
:10050000882F90E087709070B90102C0660F771F46
:100510008A95E2F7CB01842B8C9357C0A5E3B0E01A
:100520008A81882F90E09C012770307081E090E0F4
:1005300002C0880F991F2A95E2F7982F9095E5E35E
:10054000F0E08081492F48238B81882F90E09C0127
:10055000217030708A81882F90E087709070B90187
:1005600002C0660F771F8A95E2F7CB01842B8C932C
:100570002CC0A2E3B0E08A81882F90E09C01277014
:10058000307081E090E002C0880F991F2A95E2F751
:10059000982F9095E2E3F0E08081492F48238B81EA
:1005A000882F90E09C01217030708A81882F90E024
:1005B00087709070B90102C0660F771F8A95E2F7C5
:1005C000CB01842B8C9301C0198289810F900F90ED
:1005D0000F900F900F90CF91DF910895DF93CF93FD
:1005E00000D000D0CDB7DEB78A8382E089838A81CC
:1005F000803208F076C08A81869586958695282F68
:1006000030E03C832B834B815C814130510559F1B3
:100610008B819C818230910534F42B813C812115A2
:10062000310569F05CC04B815C814230510579F144
:100630008B819C818330910509F43DC050C0E9E372
:10064000F0E08081282F30E08A81882F90E0877049
:100650009070A90102C0559547958A95E2F7CA01A5
:10066000817089833EC0E6E3F0E08081282F30E08E
:100670008A81882F90E087709070A90102C05595FB
:1006800047958A95E2F7CA01817089832AC0E3E31E
:10069000F0E08081282F30E08A81882F90E08770F9
:1006A0009070A90102C0559547958A95E2F7CA0155
:1006B0008170898316C0E0E3F0E08081282F30E06C
:1006C0008A81882F90E087709070A90102C05595AB
:1006D00047958A95E2F7CA018170898302C082E05A
:1006E000898389810F900F900F900F90CF91DF91A8
:1006F0000895DF93CF93CDB7DEB70E943600FFCFCA
:04070000F894FFCF9B
:00000001FF
